:020000040800F2
:100000000348044B834202D0034B03B118477047A7
:100010000000002000000020000000000548064904
:100020000B1AD90F01EBA301491002D0034B03B106
:10003000184770470000002000000020000000006A
:1000400010B5064C237843B9FFF7DAFF044B13B120
:100050000448AFF300800123237010BD000000208E
:10006000000000008800000808B5044B1BB10449DB
:100070000448AFF30080BDE80840CFE7000000006F
:100080000400002088000008F8B500BFF8BC08BCD8
:100090009E467047F8B500BFF8BC08BC9E46704746
:0400A00069000008EB
:0400A400410000080F
:0400000508000000EF
:00000001FF
